:100000006BC2000086C2000084C2000082C20000F1
:1000100080C200007EC200007CC200007AC20000E4
:1000200078C2000076C200000C94F8240C94C42519
:100030000C94CA1F6EC200006CC200006AC20000AD
:1000400068C2000066C2000064C2000062C2000014
:1000500060C200000C9441205CC200005AC2000043
:1000600058C2000056C2000054C2000052C2000034
:1000700050C200004EC200004CC200004AC2000044
:1000800048C2000046C2000044C2000042C2000054
:1000900040C200003EC200003CC200003AC2000064
:1000A00038C2000036C2000034C2000029003A0005
:1000B0003B003C003D0000003E003F00400041008E
:1000C000420043004400450046004C0035001E003D
:1000D0001F0020002100220023002400250026000C
:1000E00027002D002E0000002A004A002B000000EF
:1000F00014001A000800150017001C0018000C005E
:10010000120013002F00300031004B0039000000B6
:1001100004001600070009000A000B000D000E0085
:100120000F0033003400280000004E00E100000002
:100130001D001B000600190005001100100036000C
:10014000370038000000E50052000000E000E30046
:100150000000E200000000002C0000000000000091
:10016000E600E700E400500051004F0000010101EB
:100170000101010101010202020202020202020364
:100180000303030303030304040404040404050534
:1001900005050506060606060707070707080808F7
:1001A00008090909090A0A0A0B0B0B0C0C0C0D0DA6
:1001B0000D0E0E0E0F0F0F1010111111121213133E
:1001C0001414151516161717181819191A1A1B1BB7
:1001D0001C1D1D1E1E1F2020212222232424252613
:1001E00026272829292A2B2C2D2D2E2F303132324B
:1001F000333435363738393A3B3C3D3E3F40414257
:10020000434445464748494A4C4D4E4F505153543C
:10021000555658595A5B5D5E5F61626465666869F0
:100220006B6C6D6F7072737577787A7B7D7E808270
:10023000838587888A8C8E8F91939596989A9C9EB9
:10024000A0A2A3A5A7A9ABADAFB1B3B5B7BABCBEC9
:10025000C0C2C4C6C9CBCDCFD1D4D6D8DBDDDFE296
:10026000E4E7E9EBEEF0F3F5F8FAFDFF000000003B
:10027000000000002A2B2800000000000000000001
:100280000000000000000029000000002C1E3420A7
:10029000212224342627252E362D3738271E1F20CD
:1002A0002122232425263333362E37381F04050612
:1002B0000708090A0B0C0D0E0F1011121314151656
:1002C0001718191A1B1C1D2F3130232D3504050654
:1002D0000708090A0B0C0D0E0F1011121314151636
:1002E0001718191A1B1C1D2F3130354C0000000047
:1002F00000000000000000000000000000000000FE
:1003000000000000000000000000000000000000ED
:100310007E0F00D4FFFFFFC70000007816036500C2
:10032000610072007400680074007900700065005C
:100330007200000014036D006500650070006F001E
:1003400064006500650070000000040309040902F0
:100350005B00030100A0FA09040000010301010091
:100360000921110100012244000705810308000151
:10037000090401000203000000092111010001220B
:100380002200070582032000010705030320000166
:1003900009040200010300000009211101000122EB
:1003A000B6000705840320000112010002000000CE
:1003B00008434D01000001010200010660FF0961D0
:1003C000A1010962150026FF009520750881020928
:1003D00063150026FF00952075089102C0050109EC
:1003E00002A10185020901A10005091901290815C9
:1003F00000250195087501810205010930093115B3
:1004000081257F95027508810609381581257F951C
:100410000175088106050C0A38021581257F9501B2
:1004200075088106C0C005010980A1018503190175
:100430002AB700150126B700950175108100C00587
:100440000C0901A101850419012AA002150126A0A9
:1004500002950175108100C005010906A1018506FC
:10046000050719E029E715002501950875018102A6
:100470000507190029EF1500250195F07501810286
:100480000508190129059505750191029501750366
:100490009101C005010906A101050719E029E71529
:1004A00000250195087501810295017508810105F6
:1004B00007190029FF150026FF0095067508810021
:1004C00005081901290515002501950575019102F9
:1004D000950175039101C00011241FBECFEFDAE032
:1004E000DEBFCDBF11E0A0E0B1E0E2E2F1E502C085
:1004F00005900D92A03CB107D9F723E0A0ECB1E044
:1005000001C01D92AA35B207E1F70E94F8100C94C1
:100510001F2876CD811113C0663088F4403178F4FD
:1005200080E1689FF0011124E40FF11DEE0FFF1F21
:10053000E455FF4F85919591282F822F089521E052
:1005400090E0FBCF81E0089581E00895FBCF08950E
:1005500081E0089581E00895FDCF089508950895FC
:10056000FDCF089508950895A6E0B0E0EAEBF2E02B
:100570000C949B2749835A839E833091C7018981BC
:100580009A81311117C03E81311589F0211579F01A
:10059000E2D4182F682F89819A81BDD469817A812C
:1005A000812F0E94D30D2696E3E00C94B727C3D485
:1005B000182FF4CFD0D469817A81F3CFFC01262F94
:1005C000408151816281738184819581CDCFCF93A8
:1005D000DF93EC0161E0F2DFBE01B6DF811529F0A7
:1005E00061E0CE01EBDFBE01B1DFDF91CF91089575
:1005F0000F931F93CF93DF93EC0160E0DFDF8C015B
:10060000BE01ADDFBE01C801ABDFDF91CF911F910D
:100610000F9108950F931F93CF93DF93EC0161E047
:10062000CDDF8C018D8181110E947913BE01C8013B
:100630008FDF811106C080E0DF91CF911F910F9174
:100640000895BE01C80188DF8115A9F3BE01C80164
:100650000E94BA1B811579F3BE01C8010E94F81AE5
:10066000811549F3BE01C8010E946D16811519F369
:10067000BE01C8010E9442168115E9F2BE01C801FF
:100680000E9410118115B9F2BE01C8010E94381BE9
:10069000811589F2BE01C8010E94D50E811559F25B
:1006A000BE01C8010E94E70E811529F2BE01C801F2
:1006B0000E94010FC1CF91E001C0990F8A95EAF71E
:1006C000892F88C3CF93C82F81E00C2E01C0880FDB
:1006D0000A94EAF70E94E80B8C2FEDDFCF91089582
:1006E00081E0089581E00895FBCF0895CF93C82F4E
:1006F00022D38C2FF7DF8C2FF7DF8FEF94E32CE0E2
:10070000815090402040E1F700C00000CF91089553
:1007100081E0ECDF0C94652080E0E8DF0C9496200B
:1007200021DF0E94631F17C018D01DDF0C94671FC4
:1007300081E008950895CF93DF93D82FF9DFC82F74
:10074000811511F08D2FF6DF8C2FDF91CF91089559
:100750000895F1CF089580E0FCCF0E944E1DF9CF9F
:10076000CF930E944E1DC82F8091C2018C1771F04B
:10077000C093C2010E9435206093C3017093C401ED
:100780008093C5019093C6018C2FE3DFCF9108952C
:10079000ADE0B0E0EEECF3E00C949C27488759877D
:1007A0006A877B878C879D879111FED61F8286E0A2
:1007B000FE0138969E012F5F3F4FD90101900D92A7
:1007C0008A95E1F78D8181110CC029813A814B8195
:1007D0005C816D817E818F8132D62D96E2E00C9412
:1007E000B827CE010196F3DE8111EFCFF6CFFC01E1
:1007F0002481213019F480819181D9C30895611534
:1008000021F00E94C9170C947E180E940918FBCF92
:10081000CF93C82F811581F08450813A78F48C2FC2
:100820000E940F1E811521F08C2F0E94AC1E47D70D
:100830008C2F0E94951E43D7CF9108958C2F805EF8
:10084000883048F481E0C1FD84E0C0FD880FC2FD1E
:1008500082958BD6F0CF8C2F855A833030F48C2F35
:100860008452990B0E948E1DE7CFEC2FE85AEB3192
:1008700050F4F0E0EE0FFF1FEC5DFE4F80819181A0
:100880000E94B51DD9CF8C2F8D5C8331A8F661E015
:100890008C2FB5DFD1CF811559F1982F9450913A13
:1008A00018F40E94AC1E0BC7982F905E983050F43D
:1008B000982F81E091FD84E090FD880F92FD829554
:1008C0005AD6F1CF982F955A933020F480E090E0DB
:1008D0000C948E1D982F985A9B3120F480E090E064
:1008E0000C94B51D982F9D5C933110F460E087CF78
:1008F00008951F93CF93DF93182FEB0189DF209783
:1009000031F4812FC8DFDF91CF911F9108958FE9D6
:100910009FE00197F1F700C000002197F0CF60E55C
:1009200070E0893311F060E070E0E3CF811511F0E1
:100930001CD6C5C60895811511F01DD6C0C60895F0
:10094000A0E0B0E0E6EAF4E00C9496276C01D62F24
:10095000C72FFC011581068102950F70FBD5E82E8B
:100960008115E9F0E12E1115D1F08C2F807F8034B4
:1009700061F08D2F805E8830E0F08C2F807E803299
:1009800021F4D230B0F00115A1F08091CE0282FFA7
:1009900010C082E0B8D6DED591E08927E82EEC2F92
:1009A000E295EF70C03C78F5F0E0EF5DF74D0C9408
:1009B0007F27E12CF4CF0C2F0F70C03110F002957F
:1009C000007F111581F0011549F08D2F805E883070
:1009D00010F0D11105C0802FC8D571D68D2F40C021
:1009E000802FD4D5FACF8D2F56DF011561F08D2FD2
:1009F000805E883010F0D11103C0802FBCD502C0BA
:100A0000802FCAD55CD6E11409F4AEC09FD580FD15
:100A1000ABC0F601158294D5FFD1C6015DD190D54A
:100A200004D2A2C08C2F8F70F82EC07FC03219F074
:100A3000F29480EFF822D13038F079F1111509F4F1
:100A400038C00115C9F0CACF8091CE0282FD10C016
:100A5000111541F0F11419F08F2D87D530D680E0B3
:100A6000D7DED1CF80E017DFF11469F28F2DC6CF2A
:100A7000111551F0013018F48F2D58DFC4CF09F053
:100A8000C2CF8F2DA5D5BFCF0111BDCF8F2D53DF85
:100A90008F2DA9D58F2D8ED5B6CF111521F006300B
:100AA00008F0B1CFE9CF053008F0ADCF8F2D43DF8F
:100AB000AACF0115D9F3D93349F48FEF97EE23E08C
:100AC000815090402040E1F700C000008D2FE3DE10
:100AD0009ACF8C2F869586958370813060F009F0CF
:100AE00092CF8D2F9C2F9370111102C080E090E067
:100AF0000E94B51D88CF8D2F9C2F9370111102C0BD
:100B000080E090E00E948E1D7ECF612F8D2F77DEDA
:100B10007ACF8C2F837099F5111123C09D2F929558
:100B200096959770990F990F4D2F4F70092E01C010
:100B3000440F0A94EAF78D2F8071D4FF07C02FE08D
:100B400001C0220F9A95EAF7822F8095C695C69527
:100B5000C370842BC23079F0C33079F0C13049F0D2
:100B60003FD10E944E1DF5DDCDB7DEB7E8E00C9415
:100B7000B22732D1F6CF38D1F4CF2CD1F2CF111524
:100B800031F1C0FFEECF9D2F929596959770990FFA
:100B9000990F4D2F4F70092E01C0440F0A94EAF7A8
:100BA0008D2F8071D4FF07C02FE001C0220F9A95CE
:100BB000EAF7822F8095C695C695C370842BC23004
:100BC00059F0C33059F0C13029F047D1CACF823033
:100BD00040F2D9CF3ED1C5CF44D1C3CF0FD1C1CF81
:100BE000CF70111529F08C2F17D18D2F9FDEB9CF23
:100BF0008D2FA1DE8C2F19D1B4CFD23F31F168F403
:100C0000D03FC1F0D13F89F0111509F43EC0011564
:100C100009F438C08D2FFCDDA4CFD33FE1F0D43FE1
:100C200099F78091CE0282FD1EC08C2F8F71111515
:100C300011F30FC0111539F0053008F092CF8C2F49
:100C40008F71FED08ECF0630F8CF8C2F8F7111119F
:100C5000D2CFE2D086CF111521F08C2F8F71D5D055
:100C600080CFD1D07ECF111529F063E08C2F8F710A
:100C700033D577CF81E047D5023008F472CF82E0D8
:100C800042D56FCF8C2F8F71E4CF011571F0D9331E
:100C900049F48FEF97EE23E0815090402040E1F738
:100CA00000C000008D2FF7DD5CCF8C2F8F71A3CF9C
:100CB0000F931F93CF93DF93EC01688179818D812E
:100CC0007FD18C01D2D085D0B801CE0139DEDF9141
:100CD000CF911F910F910895CF93DF93EC018C81F9
:100CE000811581F0CE0196DC81110FC033D48115BE
:100CF00049F08D81811531F08091CE0282FF02C0D2
:100D000082E001D5DF91CF910895CE01D1DFCE01F0
:100D10006FDCF8CF80E090E00E948E1D80E090E0D4
:100D20000E94B51D41D4CBD40E9497180C947E1814
:100D30000E94C31EEFCF27D4FBCF282F92959F7020
:100D4000963099F060F4925F9F70923030F4203FBB
:100D5000B1F038F481E0283E38F080E008959A5FE1
:100D6000F3CF81E0243FC9F7089591E0813F09F076
:100D700090E081E0283E08F080E0892B089581E032
:100D80000895FC012481211521F0808191810FD1EA
:100D9000D4CF80E00895A6E0B0E0E1EDF6E00C9459
:100DA0009C272696E2E00C94B827A7E0B0E0EBED94
:100DB000F6E00C949C272796E2E00C94B82708955F
:100DC000FECF0895FDCF0895FADFFCDF8093ED019B
:100DD00008950895F9CF08959091ED01892BF4CFEE
:100DE0009091ED018923F0CF9091ED018927ECCF0F
:100DF000E6CF0895FDCF0895E2CF0895FDDFFADF35
:100E00008093EC01089580E0F9CF91E001C0990F43
:100E10008A95EAF7892FF2CF21E001C0220F8A9547
:100E2000EAF78091EC01822BE9CF21E001C0220F8B
:100E30008A95EAF7822F80959091EC018923DECF85
:100E400021E001C0220F8A95EAF78091EC01822708
:100E5000D5CF9091EC01892BD1CF9091EC018923D2
:100E6000CDCF9091EC018927C9CF0895CF93C1E0F0
:100E700061FDC4E060FDCC0F62FDC29593E0769504
:100E800067959A95E1F79B01220F331F260F371FB5
:100E9000420F531FFA0140E050E090E06191DF0102
:100EA0009C01042E02C0369527950A94E2F72695F8
:100EB000220B26272C2326272E934F5F5F4F43308C
:100EC000510561F7CF910895A82FA77023E096955B
:100ED00087952A95E1F79C01220F331F820F931FFC
:100EE000680F791FFB0140E050E080E0219130E085
:100EF0000A2E02C0369527950A94E2F72170042E37
:100F000001C0220F0A94EAF7822B4F5F5F4F4330F4
:100F1000510561F70895262F963060F4803150F422
:100F200030E1939FB0011124680F711D48EC51E02E
:100F3000822F9CCF0895963060F4803150F440E1C8
:100F4000949F9001112468EC71E0820F932F911D02
:100F5000BBCF80E00895CF92DF92FF920F931F9353
:100F6000CF93DF936C010091EC018091ED01082B90
:100F7000C3E0D0E010E0C8010C2E02C09595879523
:100F80000A94E2F780FD0CC02197A8F7F12C8F2D71
:100F9000DF91CF911F910F91FF90DF90CF90089537
:100FA000FC2EB6018C2F09D6019771F3F0CFCF93A9
:100FB000DF93EC01D0DFBE0100D6DF91CF91089521
:100FC0001F93CF93DF93EB019091C701911531F0FF
:100FD000CB01EDDFDF91CF911F910895811551F085
:100FE000CB01B9DF182F682FCE0195DFBE01812F0D
:100FF000E4D5F0CFCB019FDF182FF8CFE1E0F0E090
:10100000DF0101C0AA0F6A95EAF76A2FDF0101C06C
:10101000AA0F4A95EAF76A2B01C0EE0F2A95EAF764
:10102000962F9823961302C08E2B0895E0958E2359
:101030000895242F462F682F8091EC01DFDFDECE4C
:101040000F931F930091EE018091EF01801303C075
:101050001F910F91089587E0089FF0011124E0513E
:10106000FE4F208131814281538164817581868167
:101070009CDE0F5F1F4F0770E7CF20912802309151
:10108000290240912A0250912B0260912C0270910A
:101090002D0280912E0289CE80912E02803170F433
:1010A00080912D02811551F0E091EE012091EF0128
:1010B00030912902409128022E1301C00895BF01EA
:1010C00087E0E89FF0011124DF01A051BE4F149684
:1010D0008C911497811549F111968C911197831376
:1010E00024C08C91841321C015968C911597811181
:1010F0001CC012968D919D91A0912A02B0912B0255
:101100008A1B9B0B883C910580F480912E028F7086
:10111000806180932E02EA50FE4F80818F70806143
:10112000808388E292E0D8DD8BCF6F5F7F4FFB0139
:10113000E770C2CFE091EE019091EF01E91302C098
:1011400080E008959F0157E0E59FF0011124E051F0
:10115000FE4F5181561306C05081581303C055816C
:10116000541305C02F5F3F4FF901E770E7CF81E0CF
:1011700008958F929F92AF92BF92DF92EF92FF926B
:101180000F931F93CF93DF93CDB7DEB72D970FB695
:10119000F894DEBF0FBECDBF8C0186E0F801DE0102
:1011A000189601900D928A95E1F7F801F5808481F7
:1011B00098E2892E92E0992E90912C02911117C0FD
:1011C000811509F4EFC0F11409F42EC1C801D9DD6D
:1011D000811509F429C187E0F801D40101900D922D
:1011E0008A95E1F7C40103DB57DF47DFDBC0E0800E
:1011F000A280B380D0902D0220912A0230912B0240
:10120000A501421B530BD11409F4CFC0483C510532
:1012100008F09EC0811509F4C5C090912902918003
:1012200080912E02803108F065C0991226C09091FD
:1012300028029E1122C0F11057C08F7080618093E8
:101240002E021BDF88E292E047DD80912E02F8013A
:101250008683F12C8F2D2D960FB6F894DEBF0FBE2E
:10126000CDBFDF91CF911F910F91FF90EF90DF9055
:10127000BF90AF909F908F900895F11035C040E0DF
:10128000692D8E2D57DF40E0692D8E2D53DFF82E0E
:101290008111DFCF888599858ADE292F22952F70CD
:1012A000903450F49F70223078F0911591F0F8014D
:1012B0009681903170F4CECF2A5F2F70223070F07B
:1012C000C8010ADDFD2CC6CF911519F0811509F46E
:1012D000C1CF805E883008F4BDCFF2CF803F08F4E4
:1012E000B9CF815F8330F7CF80912E0281608093E8
:1012F0002E02AFCF991207C0909128029E1103C011
:10130000F11409F473C0C8013CDD811509F48CC0E7
:10131000F11409F489C080912E02803280F020916E
:1013200028023091290229833A83AB82BC829091B2
:101330002C029D831E828F83CE010196CDDC87E037
:10134000F801A8E2B2E001900D928A95E1F74CCF46
:1013500090912E02903188F4488559856A857B8565
:101360008C859D8518DD88E292E0B6DCF40187E08B
:1013700011928A95E9F781DE6CCF811599F0209161
:10138000290281812813BFCF809128028E11BBCF03
:10139000F110B9CF9683C8019FDCF40187E0119268
:1013A0008A95E9F7FF24F39455CF483C510508F09E
:1013B0003EC08115B9F3F114B9F1909129028181F0
:1013C000981329C0809128028E1125C080912E0289
:1013D00080FD18C08031B0F08683807F803F39F077
:1013E0008681982F907F905F8F70892B8683C801AC
:1013F00073DC87E0F801A8E2B2E001900D928A95D3
:10140000E1F7F3CE87E0F801A8E2B2E001900D9297
:101410008A95E1F7C7CFC801B4DC811190CF8091E4
:101420002E02816080932E02C80156DCBBCF488516
:1014300059856A857B858C859D85ADDC97CFAEE02F
:10144000B0E0E5E2FAE00C949B27288739874A87C9
:101450005B876C877D878E87CE0108968ADE6C85D8
:10146000811599F0611539F0288539854A855B85A4
:101470007D858E859ADC8091EE019091EF01891334
:101480003DC02E96E3E00C94B72787E09E01285FCD
:101490003F4FF90127503109D90101900D928A95EA
:1014A000E1F7611541F3A091EF018A2F90E0839558
:1014B000877090E0AC012091EE012417150691F0A1
:1014C00097E09A9FD0011124A051BE4F9E012F5F3B
:1014D0003F4FF90101900D929A95E1F74093EF018A
:1014E000AFDDC9CF28DC1092EF011092EE01E8E2E7
:1014F000F2E087E011928A95E9F7BDCF17E0189FD7
:10150000C001112480519E4F34DE811509F4B9CFFA
:10151000E091EE011E9FF0011124E051FE4F208169
:101520003181428153816481758186813EDC809165
:10153000EE019091EF01019687708093EE019BCFB1
:1015400080915702869586958695089580915702D9
:101550008770089590915702977081E0911101C0B2
:1015600080E0089580918302089590918302982BE2
:101570009093830208958095982F80918302892308
:1015800080938302089510928302089590918202BD
:10159000982B9093820208958095982F80918202D3
:1015A00089238093820208951092820208950895FB
:1015B000FECF089590915802292F282329F0809575
:1015C000892380935802F4CF08950895FECF08959B
:1015D00090915902292F2823281721F0982B9093B6
:1015E0005902F4CF089590915902292F282329F008
:1015F0008095892380935902E9CF089580915902FB
:10160000811521F01092590280E0E0CF0895CF9328
:10161000C091830280918202C82B8091590281156A
:1016200029F0C82B0E94E91D8111E8DF8C2FCF9192
:101630000895CF93DF93C0910201D0910301E7DFBA
:101640008883C0910201D091030148E050E06FE42B
:1016500072E0CE010E94C327892B59F088E0FE0179
:10166000AFE4B2E001900D928A95E1F7CE010E94BD
:101670005D1DDF91CF910895CF93DF93C09100015D
:10168000D0910101C4DF8983C0910001D091010193
:1016900040E250E06FE272E0CE010E94C327892B46
:1016A00059F080E2FE01AFE2B2E001900D928A951E
:1016B000E1F7CE010E946A1DDF91CF9108950E944B
:1016C000471D811529F08091CD0287FF01C0D4CF3D
:1016D000B0CF0895FECF08959091CE0292FF0EC034
:1016E000982F990F990F990F962B9093570294DB8F
:1016F00080915702869586958695ECCF8DCB10927A
:10170000570280E0E7CF909157028095892380931C
:101710005702282F277059F4891749F09091CE026B
:1017200092FF05C08695869586957FDBE8CF089564
:101730009091CE0292FB222720F9281749F080FBD6
:1017400092F99093CE028DEC92E046D082E0DBCF0E
:1017500008958091CE02002482FF0394802DE8CF6B
:1017600081E0E6CF80E0E4CF80E090E0BC01FBC305
:1017700080E090E0BC01F1D3F7CFA3E0B0E0E3EC70
:10178000FBE00C949C2757D362D31B82CE010396B7
:1017900075D381E08093ED017BD3198284E18A8344
:1017A000CE01019686D31AD60E94A41BE1DF2396B0
:1017B000E2E00C94B827E1CF08954FC308953CD3DD
:1017C00081110C946C1B08954EC308955DC3089558
:1017D0005FC3089562C308956CC3089571C30895EB
:1017E000A3C30895C6C30895A6E0B0E0EAEFFBE006
:1017F0000C949A270E9429208C0180918402909158
:1018000085028017910779F019821A820E94292097
:10181000BC0149815A8180E090E00E94C803009396
:101820008402109385022696E4E00C94B6270E9469
:10183000352060938A0270938B0280938C02909380
:101840008D02609386027093870280938802909342
:101850008902089508950895FDCF08950895FEDF43
:10186000FBCF0895FECF08950895FEDFFBCF83EDF3
:101870009EE0D1D4F0DFF3CF81E0089581E00895B8
:10188000FBCF0895089508950895FCDFFCDFFCCF99
:1018900096DF811101C08FDF8EE892E095DF8DEC3D
:1018A00092E098DF8ED792DF95DA8091EC01A2CAA0
:1018B0000E9420200E94AF1B14D4EADF0E94451D25
:1018C0000E94A803E8D6D1CFA6E0B0E0EAE6FCE0AB
:1018D0000C949027D3DF81110CC086DF0E94461D37
:1018E00009D70E94B8180E94B0032696EEE00C9427
:1018F000AC2706D421EC822E22E0922E740110E057
:10190000F701C080D180812F3FD31F5F163009F4CB
:1019100050C022E0E20EF11CC816D90689F380916E
:101920008E0281FD3AD3ACDF682E10E0812F2CD3DC
:101930007C01F401A190B1904F018A159B0599F1AA
:10194000A826BF2400E091E0C92ED12CC5018C212E
:101950009D21892B01F177247394C7018C219D214E
:10196000892B09F4712C611489F0602F812F0E945A
:101970008B1F81110BC009831A830E942920BC018F
:1019800049815A8181E0972D0E94C803472D602F1D
:10199000812F0E94A21F0F5FCC0CDD1C0031B1F61D
:1019A000F401F292E2921F5F163009F0BFCF3FDFE1
:1019B00095CFC816D90609F0B2CF8FCF0F931F93DA
:1019C000CF93DF93FCD0EC01D23508F050C0D03576
:1019D00008F0C8C0C03ED10530F5CD3CD10508F0B7
:1019E0009DC0C83AD10578F4C53AD10508F093C036
:1019F000C130D105B1F1CE010497813A910588F14A
:101A0000C0E0D0E02EC0CE01885A91094B97C0F7B4
:101A1000C85AD0E0CC0FDD1FC65ADE4F0990D881DE
:101A2000C02DD4641EC0D034A8F4D03208F0ADC0AC
:101A3000C83ED105B0F0CE0191509F3108F78D2FEF
:101A400061D1082F8C2F90E0BAD0D02FDF71C82F32
:101A5000D92B07C08C2F90E0B2D0DF70C82FD92BC4
:101A6000D06ACE01DF91CF911F910F910895C038B8
:101A700082E5D807B8F5C03682E5D80708F056C029
:101A8000C03482E5D807C8F4C03282E5D80708F030
:101A900047C08C2F8695869520E2829FC001112435
:101AA000C37021E030E002C0220F331FCA95E2F775
:101AB000E901C82BD92BDD68D4CF8C2F869586956C
:101AC000877020E2829FC0011124C37021E030E0C2
:101AD00002C0220F331FCA95E2F7E901C82BD92BA8
:101AE000DC68BFCFC03C82E5D80750F48C2F8F71E3
:101AF000C03AD24580F5982F84EF906AEC01B1CFBF
:101B0000CE01805C9245809708F07ACFDC2FDF71A0
:101B1000C0EFD06AA6CFA497D064A3CFD065A1CFE1
:101B20008C2F8F71D82FC1EFD06A9BCF8C2F8695C9
:101B30008695877020E2829FC0011124C37021E046
:101B400030E002C0220F331FCA95E2F7E901C82B2B
:101B5000D92BDA6886CFD6D0982F80E09F71EC0120
:101B6000D0627FCF8C2F8F71CDD053E0CC0FDD1F93
:101B70005A95E1F7DF70282F84FF04C090E1899F18
:101B800090011124C22FD0696CCF8D2F8F71BAD0E4
:101B9000082F8C2F90E013D0302F3F71282F392B36
:101BA0003062E9015ECF462F763020F4603110F4C8
:101BB000672F6BC680E090E00895F5DFFFCE803E92
:101BC0009105D1F1C8F48133910509F481C048F43D
:101BD0008932910509F471C08A32910509F47FC0F8
:101BE000089589339105E1F082389105C9F0853374
:101BF000910509F45DC00895843E9105D1F148F442
:101C0000823E910531F1833E910541F181EE90E0F4
:101C10000895863E9105C1F1873E9105F1F1089541
:101C20002091CD02237009F064C02091CE0223FFE1
:101C300014C089E290E008952091CD0220FD45C0B6
:101C40003091CE0230FF09C024FD24C083EE90E025
:101C500008952091CD0222FDF7CF08952091CD0265
:101C600022FD44C03091CE0230FD43C024FFF5CFA9
:101C700011C02091CE0221FFF0CF8091CD0284FDD2
:101C800009C087EE90E008952091CD0223FFE5CFB3
:101C900024FFF7CF80E090E008952091CD0223FD4E
:101CA0002BC03091CE0231FFE1CF84EE90E0089559
:101CB0002091CD0225FFD1CFBCCF2091CD0225FDB3
:101CC0001EC02091CE0223FFC8CF89E390E0089583
:101CD0002091CD0226FFC1CF8AE290E008952091A5
:101CE000CD0226FFBACF81E390E0089582EE90E026
:101CF000089580EE90E0089586EE90E0089585E3E3
:101D000090E008959091CD0292FF10C041E0282FFD
:101D10002471243009F040E031E0282F2871283068
:101D200009F030E0431711F02CE0822793FF10C038
:101D300041E0282F2471243109F040E031E0282FC0
:101D40002871283109F030E0431711F02CE0822788
:101D50003091CE0230FF10C051E0282F2171213088
:101D600009F050E041E0282F2871283009F040E0C8
:101D7000541711F029E0822731FF10C041E0282FCD
:101D80002171213109F040E031E0282F28712831FC
:101D900009F030E0431711F029E0822794FF02C0D8
:101DA00083FD877E089580E00895CF939C01205E97
:101DB0003245C1E02032310538F4FB01C581C11143
:101DC00003C08F710E9462038C2FCF9108959C01F4
:101DD000FB018581811599F02B359CE7390769F066
:101DE0002C359CE7390721F02A353C4721F008952E
:101DF000B0DC80E00895B4DCFCCFB4DCFACF81E045
:101E000008959C01FB018581811599F021309CE7A3
:101E1000390761F023309CE7390739F021153C4739
:101E200049F40E94880380E00895C7DC0E948C0377
:101E3000FACF81E00895089580E090E00E94DD27C8
:101E40009C0181E0233E3E4F09F080E0089563EE5F
:101E50007EEF80E090E00C940B286FEF7FEF80E046
:101E600090E00C940B28CF93DF93EC0182E090E09C
:101E70000E94D0278883DF91CF910895FC01608173
:101E800082E090E00C94F12783E090E00C94D0275E
:101E9000682F83E090E00C94F127CF93DF93EC015F
:101EA00084E090E00E94DD2788839983DF91CF91C1
:101EB0000895FC016081718184E090E00C940B280E
:101EC0008F929F92AF92BF92CF92DF92EF92FF924A
:101ED0000F93CF93DF93EC0188E090E00E94D82726
:101EE0004B015C01688399828A83BB821C821D82BC
:101EF0001E821F8283E290E00E94D0279401A501F8
:101F000088823983AA825B838C831D821E821F8212
:101F1000DF91CF910F91FF90EF90DF90CF90BF9026
:101F2000AF909F908F9008950F93CF93DF93EC0124
:101F3000488159816A817B8188E090E00E94032872
:101F40006C81262F60E070E0CB01622F83E20E945B
:101F5000F127DF91CF910F910895AB01BC018FE084
:101F600090E00C940328AB01BC0183E190E00C9459
:101F70000328682F8EE090E00C94F1270895FECF9F
:101F800008950895FECF0895E82FF0E0EE0FFF1FAB
:101F9000E552FD4F808191810895089580EA8A95E8
:101FA000F1F7089500C00895F9CF0895F894E82F47
:101FB000E295EF70F0E041A18F7021E001C0220FA7
:101FC0008A95EAF7922F9095942391A392A1822F5C
:101FD000892B82A378940895CF93DF93C0EAD1E050
:101FE00089918F3F09F0E2DF81E0C63AD807C1F757
:101FF000C0E9D1E089918F3F09F0D8DF81E0C03A94
:10200000D807C1F7DF91CF910895AF92BF92DF92C9
:10201000EF92FF920F931F93CF93DF935C01D62E25
:10202000C62FD0E08E0100561E4FF80180818F3FF1
:1020300009F44BC0F894E82FE295EF70F0E091A11D
:102040008F7021E001C0220F8A95EAF7892F822B39
:1020500081A382A12095282322A37894A3DFE0E91D
:10206000F1E021E030E0E12CF12C41914F3F79F09B
:10207000A42FA295AF70A05EB0E08C9190E04F705D
:1020800002C0959587954A95E2F780FF28C080E0C9
:1020900090E0E82AF92A220F331F81E0E03AF8079E
:1020A00021F7F80180818F3F09F080DF61E0E114C2
:1020B000F10409F460E08D2D77DFCC0FDD1FC50141
:1020C0008C0F9D1FEC01E882F982DF91CF911F9167
:1020D0000F91FF90EF90DF90BF90AF900895C901EE
:1020E000D8CF7ADFEBEDF2E08CE011928A95E9F738
:1020F000EFECF2E08CE011928A95E9F73CD03FCF0B
:10210000ACE0B0E0E6E8F0E10C949927FE013196EE
:10211000DF018CE01D928A95E9F710E00E2FFF2E6B
:10212000612F802F9F2D71DF812F8F5F182F8630B9
:10213000B9F74CE050E0602F7F2D8FEC92E00E94C9
:10214000C32741E0892B69F440E06BED72E08FEC2E
:1021500092E012D0182F16DF812F2C96E5E00C9418
:10216000B5278CE0E02FFF2DAFECB2E001900D928F
:102170008A95E1F7EACF0895EF92FF920F931F93AC
:10218000CF93DF938C017B01C42F411579F081E05F
:10219000809391020E94292080938F029093900255
:1021A00080E0CDB7DEB7E6E00C94B427D091910281
:1021B000D115B1F380918F02909190020E94BA1FC5
:1021C000059770F34CE050E0B801C7010E94C327A7
:1021D000892B41F08CE0F801D70101900D928A958E
:1021E000E1F7CD2F109291028C2FDBCF6DCB0895AC
:1021F0000E94C31F0E9402223ADB0E941A2258DB6F
:102200000E9423220E942622F1DF0E943C220E948B
:10221000EE203BDBF7CF8093C0019093C10108957E
:10222000CF93DF93EC01FB018581811104C081E034
:10223000DF91CF91089596D98272FE01E052F8475E
:10224000EB30F105A0F7E35DF74D0C947F271BD22F
:1022500080E0EECF811521F00AD2FACF8115E1F3AB
:10226000FAD1F6CF811521F0A6D1F2CF8115E1F395
:1022700098D1EECF811521F0B8D1EACF8115E1F3E5
:10228000A7D1E6CF811521F0CAD1E2CF8115E1F3C4
:10229000B9D1DECF811521F0D9D0DACF8115E1F3A4
:1022A000C6D0D6CFA0E0B0E0E8E5F1E10C949527E8
:1022B000062FB72EE82F71110EC0411521F0F0E066
:1022C000E459FE4FE4916E2F7E2F8E2FCDB7DEB7EF
:1022D000E9E00C94B127411521F0F0E0E459FE4FFC
:1022E000E49186E0089FE00111242FEF30E0CE0159
:1022F000B9010E945827AB01C801880F991FF5E565
:10230000F49FB001F59F700D1124861B682F660F96
:10231000680FC9018B199109E89FD001E99FB00DA1
:1023200011248B2FB69E60011124CD2CD12C890154
:102330000C191D096801E09F7001E19FF00C112448
:102340004330510551F18901061B1109B09E60010E
:10235000B19ED00C1124CD2CD12C2C193D09E29F1B
:102360008001E39F100D1124712FCC3FD34050F416
:1023700041305105B1F04230510561F47E2FEB2F11
:10238000812F08C04430510579F04630510511F0D5
:102390007B2F8F2D6E2FE82F98CF7F2D8E2FEB2F39
:1023A000F9CF7E2FEF2DF6CF8E2FE12F7B2FF2CF9F
:1023B00041E078CFFDCF08958091E702843038F472
:1023C0008091E702837084608093E70208958830EB
:1023D000B8F70895F1DF87EE92E002CA85E08093B6
:1023E000E7021092E8028FEF8093E9028093EA02FD
:1023F0001092EB0287EE92E0F3C98091E70280FF32
:1024000003C086958695089580E008958091E7023F
:10241000817008959091EB02933018F49F5F909330
:10242000EB02811519F087EE92E0DAC9089581E098
:10243000F1CF9091EB02911519F091509093EB022E
:10244000811519F087EE92E0CBC9089581E0F1CFB4
:102450008091EB0208958093EB0208958091E80249
:1024600008958091E90208958091EA0208950F93FA
:102470001F93CF938091E70280FF09C0E091AE01E6
:10248000F091AF010995CF911F910F910895C091DF
:1024900006018091AA019091AB018C018091070106
:1024A000C81760F7809104019C2F981B20E040E042
:1024B00060E0892F90E0F8010995CF5FEFCF809120
:1024C000E7028E7F8093E70287EE92E089D9CFCF33
:1024D0008091E7028E7F8093E702C9CFEF92FF924F
:1024E0000F931F93CF93DF93D82F162F042F809134
:1024F000E70280FF0CC0C09106018091AA01909173
:10250000AB017C0180910701C81730F0B0DFCDB777
:10251000DEB7E6E00C94B427809104019C2F981B51
:10252000202F412F6D2F892F90E0F7010995CF5F64
:10253000E9CF0F931F93CF93DF93C82FD62F142F7C
:10254000022F8091E70280FF1FC0E82FE695E695F5
:10255000F0E0EA55FE4F9081909393028C7F843097
:1025600041F4BE01842F26DF962F672F482F892F35
:10257000B5DFC093E802D093E9021093EA02011597
:1025800019F087EE92E02CD9DF91CF911F910F9136
:102590000895E7EEF2E0282F438162818181885F10
:1025A000C8CF81E0F6CFE7EEF2E0282F43816281C9
:1025B00081818850BECF81E0F6CFE7EEF2E0628104
:1025C00021E1620F08F46FEF282F43818181B1CFA1
:1025D00081E0F3CFE7EEF2E0628121E1621B08F4D3
:1025E00060E0282F43818181A4CF81E0F3CFE7EE23
:1025F000F2E0438121E1420F08F44FEF282F62817E
:10260000818197CF81E0F3CFE7EEF2E0438121E1D2
:10261000421B08F440E0282F628181818ACF81E04B
:10262000F3CF20E086CF8091E70280FF10C0837057
:1026300084608093E702611519F087EE92E0D0D8AC
:102640004091EA026091E9028091E802EACF0895A0
:10265000682F81E0E8CF81E0FBCF682F9091E702FF
:1026600096959695892F815009F481E0DCCF81E021
:10267000F4CF61E0D8CF8091E70281608093E702D8
:1026800086958695F6CF8091E70280FF01C017CF2F
:10269000F2CF60E0C8CF8091920281111BC087EE1B
:1026A00092E09CD88091E702843020F497DE87EE98
:1026B00092E094D881DEE091A801F091A9010995FA
:1026C0008091E70280FF03C086958695E2DF81E076
:1026D0008093920208958091E70281608093E702DF
:1026E00086958695D6CF8091E70280FF01C0F0CE17
:1026F000F2CF089508950C94DC1D0895879A0895EB
:10270000FC01EE0FFF1FE80FF91FE151FD4F618340
:10271000408322830895FF920F931F93CF93DF93FB
:10272000182F062FF42EC0E0D0E02F2D402F612F60
:10273000CE01E6DF2196CE31D105B9F7CDB7DEB7B0
:10274000E5E00C94B52731B33F7721B320684FB74C
:10275000F8948FEE92E0FC010196508168E021BB75
:10276000000000C057FF31BB550F000000C000C083
:1027700000C031BB00C06A9591F753E089349507DA
:1027800051F74FBF8FE594E00197F1F700C00000CB
:10279000089513C8089580E0F7DB81700895B0DCD8
:1027A0008FEF96E721E0815090402040E1F700C094
:1027B0000000A6DCF0DF811519F0EBDF0C9465203A
:1027C0000895EDCF0895A1E0B0E0E9EEF3E10C94B7
:1027D00098277C01FC0160817181828193818E0147
:1027E0000F5F1F4F40E050E09D0199D1F7018081BC
:1027F0009181A281B3810196A11DB11D8083918336
:10280000A283B38389812196E6E00C94B42784E007
:102810000895C7C00895EEC008951F93CF93DF9326
:10282000BED0D0E0C0E010C0412F6C2F8D2F0E9491
:102830008A029C01412F6C2F8D2FDCD01F5F10313D
:1028400099F7CF5FC63011F010E0EECFDF5FD430E4
:1028500049F7DF91CF911F9108950F931F938A013C
:102860009B0140E050E0BC01CA01E9D01F910F91EB
:1028700008950F931F938A019B0140E050E0BC0133
:10288000CA0113D11F910F910895843028F4663046
:1028900018F4403108F485C080E090E0089580E1AC
:1028A000089538D1CB0108950F931F938A019B019E
:1028B00040E050E0BC01CA0132D11F910F91089550
:1028C0000F931F938A019B0140E050E0BC01CA01B5
:1028D0006CD11F910F91089563D099C16F927F922F
:1028E0008F929F92BF92CF92DF92EF92FF920F93BF
:1028F0001F93CF93DF9300D000D0CDB7DEB7B82EB3
:10290000803118F507D161507109810991097E0163
:102910002FEFE21AF20A870121E030E040E050E0B8
:10292000FED08981811111C0F5D03B014C01E12C11
:10293000F12C6701B1101BC0C982DA82EB82FC82E4
:1029400040E0B80183EE93E181D50F900F900F9096
:102950000F90DF91CF911F910F91FF90EF90DF903B
:10296000CF90BF909F908F907F906F900895C301FC
:10297000D401C816D906EA06FB0639F321E030E097
:1029800040E050E0B601C701CAD089819FEFC91A63
:10299000D90AE90AF90A8111EACFBA94CBCF08958E
:1029A00008950F931F93CF93DF93843000F5663023
:1029B000F0F44031E0F490E2699FE0011124C40F8B
:1029C000D11DC40FD11D90EC899FC00DD11D1124C4
:1029D000CE0189960E94D027082FCE018A960E94A8
:1029E000D027902FDF91CF911F910F91089580E014
:1029F00090E0F8CF1F93CF93DF93122F8430D8F459
:102A00006630C8F44031B8F490E2699FE0011124C7
:102A1000C40FD11DC40FD11D90EC899FC00DD11DD5
:102A20001124632FCE0189960E94F127612FCE01D8
:102A30008A960E94F127DF91CF911F9108958F927E
:102A40009F92AF92BF92CF92DF92EF92FF920F933D
:102A50001F936B017C012C0D3D1D4E1D5F1D490117
:102A60005A01C814D904EA04FB0459F41F910F91C8
:102A7000FF90EF90DF90CF90BF90AF909F908F909E
:102A8000089583E0D816E104F10468F4C60189963C
:102A90000E94D027F80181938F018FEFC81AD80ABE
:102AA000E80AF80ADECF80E0F5CF8F929F92AF92CE
:102AB000BF92CF92DF92EF92FF920F931F936B0121
:102AC0007C012C0D3D1D4E1D5F1D49015A01C8148E
:102AD000D904EA04FB0459F41F910F91FF90EF9081
:102AE000DF90CF90BF90AF909F908F90089583E03C
:102AF000D816E104F10430F4F8016081C60189962A
:102B00000E94F1270F5F1F4F8FEFC81AD80AE80AFB
:102B1000F80ADDCF67ED70E080E090E008954F9215
:102B20005F926F927F928F929F92AF92BF92EF923D
:102B3000FF920F931F93CF93DF934B015C01290109
:102B40003A01E8017B0187EDE81A8CEFF80A00E012
:102B500010E0C201D301081719071A061B0678F006
:102B6000DF91CF911F910F91FF90EF90BF90AF90A9
:102B70009F908F907F906F905F904F900895C401C9
:102B8000D501800F911FA11DB11D873D9105A105A4
:102B9000B10548F4C701800F911F0E94D027899387
:102BA0000F5F1F4FD6CF80E0FACFA0E0B0E0EBED93
:102BB000F5E10C9490276B017C0149015A01380121
:102BC000EB01C75DDC4F8D01C401D5010817190762
:102BD0001A061B0628F0CDB7DEB7EEE00C94AC2742
:102BE000C601D701800F911FA11DB11D873D910521
:102BF000A105B10548F4F301E00FF11F6081CE019A
:102C0000800F911F0E94F1270F5F1F4FDDCFA0E1C2
:102C1000B0E0EDE0F6E10C948E27FE013196DF0185
:102C200080E11D928A95E9F70EE010E097ED492EBC
:102C3000512C612C712C29E2A22E23E0B22E9E2E63
:102C40008F2E6201730181E1481651046104710401
:102C50001CF080E1C82ED12CA601B501892D982D3C
:102C60000E94E227AC0CBD1C0D2C000C00084C1877
:102C70005D08600870080150104019F76096E0E1A7
:102C80000C94AA27CF93DF93EB0186319C4719F56B
:102C90000E94B20A9D819115A1F08A7A91E081117A
:102CA00001C090E090939502811549F085E30E9460
:102CB000951E0E945F0B80E0DF91CF91089589E21D
:102CC000F6CF80919502811521F085E30E94AC1E1C
:102CD000F0CF89E2FBCF81E0EFCFCF93DF93EC0120
:102CE000FB018581811509F4CBC09E013057233249
:102CF000310508F0ABC08DEC92E00E94EA0BFE01BA
:102D0000E150F047E232F10520F4E85CF74D0C9415
:102D10007F278091CD0281608093CD0290C0809109
:102D2000CE0288608093CE028AC08091CD028260FC
:102D3000F3CF8091CD028460EFCF8091CD02886087
:102D4000EBCF8091CE028160EDCF8091CE02826088
:102D5000E9CF8091CD028061DFCF8091CD0280628A
:102D6000DBCF8091CD028064D7CF0E949B068091FB
:102D7000CD028068D1CF8091CD028C60CDCF809183
:102D8000CE028360CFCF8091CD028E7FC5CF809160
:102D9000CE02877FC7CF8091CD028D7FBDCF80913E
:102DA000CD028B7FB9CF8091CD02877FB5CF809147
:102DB000CE028E7FB7CF8091CE028D7FB3CF809130
:102DC000CD028F7EA9CF8091CD028F7DA5CF80913E
:102DD000CD028F7BA1CF0E949B068091CD028F7781
:102DE0009BCF8091CD02837F97CF8091CE028C7F45
:102DF00099CF9091CD02892F8B7F92FF8460877F3E
:102E000092FF886089CF8091CE02982F909590FB99
:102E100080F990FB81F986CF9091CD02892F8F7B2D
:102E200096FF806479CF0E949B069091CD02892FF6
:102E300097FB87F9805870CF81E00E94F20B8DECF0
:102E400092E00E94EC0B0E949B0680E0DF91CF9104
:102E5000089580E0F2CF9091CD02892F8F7E94FF6C
:102E600080615ACF9091CD02892F8E7F90FF816033
:102E700053CF9091CE02892F877F93FF886052CFE6
:102E800081E0E4CF382F25EB3203C001112497FFF6
:102E900004C080589109892F089580589F4FFBCF17
:102EA00080919C0280FF0DC060910E0170E0660F62
:102EB000771F6038710588F56115710581F1862FDE
:102EC000089581FF07C060910E0184E0689FB00102
:102ED0001124EFCF82FF04C060910E0188E0F6CF8D
:102EE00090919B029115B9F060910D0180910E01B6
:102EF000961728F098E0899FB0011124DACF899FB6
:102F0000C001112423E0880F991F2A95E1F770E092
:102F10000E946C27CECF68E0D2CF8FE7089581E082
:102F2000089580919C0280FF0CC060910A0170E0BE
:102F300075956795759567956115710541F1862FB2
:102F4000089581FF06C060910A0170E0759567954C
:102F5000F3CF60910A0182FD0BC090919A02911506
:102F6000A1F06091090180910A01961738F0682F4D
:102F700070E06038710500F38FE70895899FC00104
:102F8000112470E00E946C27F4CF61E0D8CF81E07B
:102F90000895E82FED5CE33198F5F0E0E65AF74D3F
:102FA0000C947F277DDF81958093A002089578DFC0
:102FB000FBCF76DF819580939F02089571DFFBCF71
:102FC000B0DF8093A1020895ACDF8195FACFA9DF2D
:102FD00081958093A2020895A4DFFBCF815D990BB8
:102FE00021E001C0220F8A95EAF780919E02822B90
:102FF00080939E02089580919C02816080939C0240
:10300000089580919C028260F9CF80919C02846037
:10301000F5CF40919F028D3C59F48091A00287FF2B
:103020000DC01092A002411559F410929B0208C0E5
:103030008E3C81F48091A00218169CF3411581F01A
:103040008091A1029091A202892B09F056C01092A2
:103050009A0208958F3C41F447FFF0CF10929F02EF
:103060008091A0028115E0CF803D19F41416B4F3CD
:10307000E5CF9091A102893D29F41916FCF6109232
:10308000A102DCCF8A3D19F497FFD8CFF8CF9091F9
:10309000A2028B3D29F497FFD1CF1092A202CECF8E
:1030A0008C3D19F41916CCF3C9CF982F915D983047
:1030B00078F4815D990B21E001C0220F8A95EAF72F
:1030C000822F809590919E02892380939E02B6CF95
:1030D0008D3D31F480919C028E7F80939C02AECF17
:1030E0008E3D21F480919C028D7FF7CF8F3D09F0BA
:1030F000A5CF80919C028B7FF0CF0895AAD79C0129
:1031000090919F028091A002982B21F02093980229
:10311000309399029091A1028091A202982B21F004
:1031200020939602309397028DE992E0E5C4EDE991
:10313000F2E086E011928A95E9F710929B021092D4
:103140009A0210929C020895FC01828181110EC0A6
:10315000838181110BC08481811108C091E0858138
:10316000811101C090E0892F8170089581E0FCCF2A
:10317000A6E0B0E0EEEBF8E10C94992786E0EDE9EB
:10318000F2E09E012F5F3F4FD90101900D928A9589
:10319000E1F710929F021092A0021092A1021092E9
:1031A000A2028B819C81892B022FF32E811581F045
:1031B0008091980290919902DDD6AC0190919B028A
:1031C0009115A1F180910F018417150608F43BC0F9
:1031D0008D819E81892B89F0809196029091970232
:1031E000C9D6AC0190919A02911509F45AC0809108
:1031F0000B018417150608F462C0602F7F2D8DE93E
:1032000092E0D9D5811104C08DE992E09DDF811152
:1032100075DF86E0E02FFF2DADE9B2E001900D9261
:103220008A95E1F72696E5E00C94B52720911001E8
:103230008AE0289F900111242417350748F69F5FE4
:1032400090939B0202C09F3FD1F71B81111551F053
:1032500027DE91E011160CF09FEF899F802D11243D
:1032600080939F021C81111551F01ADE91E0111616
:103270000CF09FEF899F802D11248093A0028091F4
:103280009F02811509F4A4CF1091A002111509F431
:103290009FCFF8DD80939F02812FF4DD8093A00201
:1032A00097CF20910C018AE0289F900111242417C8
:1032B000350708F0A2CF9F5F90939A0202C09F3F0C
:1032C000D1F71D81111551F02CDE91E011160CF093
:1032D0009FEF899F802D11248093A1028E81182F4A
:1032E000811551F01EDE91E011160CF09FEF899FC1
:1032F000802D11248093A2028091A102811509F4EE
:103300007CCF9091A202192F911509F476CFBADDE6
:103310008093A102812FB6DD8093A2026ECFA0E040
:10332000B0E0E5E9F9E10C949527E82FF0E0E459E5
:10333000FD4F9491B92E282F26952695269530E09D
:10334000F901E45FFC4FE4908770F12C082E02C075
:10335000F594E7940A94E2F7F901E450FD4FC49024
:10336000D12C082E02C0D594C7940A94E2F72451B8
:103370003D4FF901049110E002C0159507958A951B
:10338000E2F7C62FD0E0E0FC25C0C0FE06C086EE06
:103390000E940804CE01009759F5BE018B2D0E94B2
:1033A0007904CE01009761F5C0FC32C0E0FE06C092
:1033B00081EE0E944B04CE010097C1F500FF05C0CD
:1033C0008CE20E948F042097C9F5CDB7DEB7E9E003
:1033D0000C94B12781EE0E940804CE010097A9F257
:1033E000EFE9FFE03197F1F700C000000197F6CF59
:1033F000EFE9FFE03197F1F700C000000197CBCF74
:10340000EFE9FFE03197F1F700C000000197CACF64
:1034100086EE0E944B04CE01009741F2EFE9FFE0F7
:103420003197F1F700C000000197F6CFEFE9FFE018
:103430003197F1F700C000000197BECF8FE99FE000
:103440000197F1F700C000002197BDCFA0E0B0E0E8
:10345000ECE2FAE10C9495278C017B01B42EC701B4
:10346000F80109958130A0F009F058C0C701F801B2
:103470000995C82F813089F4C701F80109950E9488
:103480008F048B2D90E0009709F040C0C111E7CF69
:10349000CDB7DEB7E9E00C94B127823031F4C70133
:1034A000F80109950E940804ECCF833031F4C7017C
:1034B000F80109950E944B04E4CF843011F7C7014D
:1034C000F8010995C82FC12CD12CDAE08C2F80533C
:1034D000990B8A30910568F0C114D10491F2EFE99B
:1034E000FFE03197F1F700C0000081E0C81AD10871
:1034F000F3CFDC9D9001DD9D300D1124820F931FD1
:103500006C01C701F8010995C82FE0CFEFE9FFE092
:103510003197F1F700C000000197B5CF6B2DFFDEAA
:103520009ECF0F931F93CF93DF93C42FD22FFC0115
:1035300085818115C9F04093A5028BD58093A302A4
:103540009093A4028C2F805E883048F481E0C1FD06
:1035500084E0C0FD880FC2FD82950E949604DF9131
:10356000CF911F910F9108951091A502141333C0AC
:103570008091A3029091A402FDD4883C910558F556
:10358000CD2FC05E1D17C1F0812F805E883048F4BA
:1035900081E011FD84E010FD880F12FD82950E94EC
:1035A0009B04C83048F481E0D1FD84E0D0FD880F51
:1035B000D2FD82950E949604802F0E948F0481E0A4
:1035C000D1FD84E0D0FD880FD2FD8295C83038F659
:1035D0000E949B04C4CF8C2F805E883008F0BFCF40
:1035E00081E0C1FD84E0C0FD880FC2FD8295F0CF6F
:1035F0000F93FC01CB01E851FC47E730F10588F55A
:10360000E359F74D0C947F2706E221EE41EE6AE183
:103610007CE787DF80E00F91089507E225EE45EE15
:103620006BE17CE7F6CF06E221EE40EE68E17CE755
:10363000F0CF07E225EE44EE69E17CE7EACF06E24F
:1036400021EE42EE6CE17CE7E4CF07E225EE46EEA8
:103650006DE17CE7DECF08E221E045EE6EE17CE73C
:10366000D8CFFB01858181111092A50281E0D3CFD3
:10367000CF93DF9387372CE7920739F088379C4741
:10368000D1F081E0DF91CF910895FB018581811513
:1036900071F019D00E940C071CD0C82F17D0D82F5A
:1036A00012D04C2F6D2F0E94190880E0EBCF0BD069
:1036B0000E941507F1CFFB018581811511F006D01D
:1036C000E9CF04D0F5CF80911301089580911201C4
:1036D0000895809111010895A3E0B0E0E2E7FBE1D5
:1036E0000C949C27AE014F5F5F4FCE010296BC0148
:1036F00001967DD18B81863231F48A81813019F433
:103700009981943209F080E081702396E2E00C9474
:10371000B827811521F044E261E086E28EC14FEFC7
:103720006FEF8FEFFBCF08950895CF92DF92EF9266
:10373000FF926B017C01F8DFB601C7019DD1FF90BC
:10374000EF90DF90CF90089551D180E0E2DF80E0EC
:1037500090E0BC01EADF61D8BFD881E0DACFE3DFD7
:1037600082D1E2DFB9DF811101C0EECF08950C9460
:10377000731308959C01FB018581811549F0A9010E
:1037800057574038510528F4822FA8D880E0089573
:1037900081E008952FEFFC012083089580E00895D3
:1037A000CF93DF93EC0188818330E1F038F48130EE
:1037B00071F0823081F0DF91CF9108958430D9F794
:1037C0000E942E1289830E9431128A83F4CF0E94B4
:1037D00034128983F0CF0E9406128115D1F30E9422
:1037E000FD11F7CF0E942812F4CFCF93DF93EC01A5
:1037F0008881833039F138F4813069F08230B1F05A
:10380000DF91CF9108958430D9F70E943412482F68
:103810006A81898108C0D9810E943112C82F0E9413
:103820002E124D2F6C2F0E941113EACF8981811126
:1038300003C00E946812E4CF0E946B1389810E942A
:103840004913DECF89810E942B12DACFFC019C0143
:103850002E5F3F4F9081983031F0993031F09730A2
:1038600031F4C901C2CFC9019BCF0C94EA118FEF8B
:1038700080830895FC012181223009F4E7CF8ACFAB
:103880001F93CF93DF93EC01162F88DF811110C0B7
:10389000E881E150E331C0F4F0E0EC58F74D0C94CE
:1038A0007F2719828CE08A83612FCE010E947B13CF
:1038B000DF91CF911F91089589818330C9F038F449
:1038C000813061F0823091F08FEF8883EDCF8430CA
:1038D000D9F71A821B821C821D82E6CFC6D30E94B2
:1038E00085276A837B838C839D83DECFBCD0F7CF13
:1038F0008A8190E0FE0186309105B4F632961182FD
:1039000012820196F8CF8981823029F08530E1F664
:103910008A812DDFC9CF6A817B818C819D810E9444
:10392000852703DFC1CF4B816A8189810E940914F9
:103930009827892798278C839D83B6CF2C813D813A
:103940003227232732274B816A8189810E940B14F9
:10395000ABCF0E940D14A8CF612FCE018BDFA4CF77
:103960000E944F148983A0CF0E9451149827892761
:10397000982789839A8398CF6B8170E089819A8197
:10398000982789279827AE014C5F5F4F0E945414F7
:103990008BCF6B8170E089819A819827892798273E
:1039A000AE014C5F5F4F0E9460147ECF0E946C148A
:1039B0007BCF0E940714D6CF6B8170E089819A81FA
:1039C000982789279827AE014C5F5F4F0E942D14DE
:1039D0006BCF6B8170E089819A819827892798271E
:1039E000AE014C5F5F4F0E9439145ECF0895EF9295
:1039F000FF920F931F93CF93DF937C018B01EA011A
:103A0000892B31F085E290E00E94D027F701808376
:103A10000115110531F086E290E00E94D027F801EF
:103A20008083209729F087E290E00E94D027888346
:103A3000CDB7DEB7E6E00C94B427CF93DF93C62F63
:103A4000D42F682F85E290E00E94F1276C2F86E248
:103A500090E00E94F1276D2F87E290E00E94F1270D
:103A6000DF91CF91089588E290E00E94D027682FDF
:103A700070E080E090E0089588E290E00C94F127F7
:103A80008093AA029093AB02089508950895FAD105
:103A9000982F81E0913009F080E00895E091AA022A
:103AA000F091AB02309739F00190F081E02D309722
:103AB00011F00995089580E00895E091AA02F0912F
:103AC000AB02309731F00280F381E02D309709F09E
:103AD00009950895E091AA02F091AB02309759F050
:103AE00024813581232B39F026E0DC012C930480DE
:103AF000F581E02D09950895E091AA02F091AB02BD
:103B0000309759F026813781232B39F022E0DC01F0
:103B10002C930680F781E02D09950895A3E0B0E08D
:103B2000E4E9FDE10C949C272091A8023091A902C0
:103B300028173907B1F08093A8029093A902E09169
:103B4000AA02F091AB02309761F00084F185E02D7C
:103B5000309739F023E029838A839B83CE01019635
:103B600009952396E2E00C94B827A3E0B0E0EBEBD4
:103B7000FDE10C949C272091A6023091A702281702
:103B80003907B1F08093A6029093A702E091AA02B0
:103B9000F091AB02309761F00084F185E02D309711
:103BA00039F024E029838A839B83CE01019609950D
:103BB0002396E2E00C94B827E091AA02F091AB02C0
:103BC000309731F00284F385E02D309709F00995A4
:103BD0000895CF93DF93C0910201D091030157DF85
:103BE000811521F08091CD0287FD11C09E012E5FCD
:103BF0003F4F96E080E09150F90140812F5F3F4FA9
:103C000041118F5F9111F7CFDF91CF9108952091EE
:103C10000001309101012E5F3F4F9EE1EBCFCF932A
:103C2000C82F811102C080E02EC031DF811521F044
:103C30008091CD0287FD0FC0809102019091030118
:103C4000FC013296089620812C17F9F03196E8177E
:103C5000F907C9F7E8CF8C2F869586958695C03FE2
:103C600010F7E0910001F0910101E80FF11D2281B0
:103C700030E0C77081E001C0880FCA95EAF72823B9
:103C800081E0232B81F2CF91089581E0FCCF9C014C
:103C9000FC01329680E09FEF4081461759F0319643
:103CA0009F3F19F4411101C0982F8F5F8630A1F713
:103CB0009F3F09F40895290F311D97FD3A95F901A9
:103CC00062830895FC01329608962191261302C062
:103CD000DF011E92E817F907C1F70895262F2695F0
:103CE00026952695603F60F4820F911DFC01677058
:103CF00021E001C0220F6A95EAF78281822B82833C
:103D00000895262F269526952695603F68F4820F04
:103D1000911DFC019DEF61FD97EF60FF959562FDA0
:103D200092958281892382830895CF93C82FAFDE35
:103D30006C2F811559F08091CD0287FF07C08091CB
:103D4000000190910101CADFCF9108958091020195
:103D5000909103019CDFF8CFCF93C82F98DE6C2F92
:103D6000811559F08091CD0287FF07C08091000135
:103D700090910101C6DFCF91089580910201909149
:103D80000301A0DFF8CF83DE811571F08091CD02B1
:103D900087FF0AC0E0910001F091010132968EE1A7
:103DA00011928A95E9F70895E0910201F0910301DB
:103DB000329686E0F5CFDC01FB0111969C911197BC
:103DC0008181981322C012968C911297811519F057
:103DD000928189131AC013968C911397811519F04B
:103DE0009381891312C015968C911597811519F03E
:103DF000958189130AC014969C91911521F081E058
:103E00002481291303C080E001C081E081700895FE
:103E10000895FECF08958F5F80931701609114017C
:103E2000709115018091160190911701F2CF83E0F6
:103E30008093170160911401709115018091160112
:103E400090911701E6CFE7CF089581E080931701A5
:103E500060911401709115018091160190911701E4
:103E6000D8CFF3CF089591E0811101C090E09093F5
:103E700016016091140170911501809116019091C5
:103E80001701C7CF809116010895809315016091A5
:103E90001401709115018091160190911701B9CF0D
:103EA000809115010895809314016091140170911F
:103EB00015018091160190911701ABCF80911401EB
:103EC000089508950895FECF089508950895F9CFAF
:103ED00008950F931F93CF93DF93F7DF0E94801015
:103EE000F5DF0CEA12E0C0E0D0E08C2F0E94C40F96
:103EF0009C01F801819331938F0191E0232B09F408
:103F000090E0D92BCF5FC63081F78D2FDF91CF9115
:103F10001F910F910895E82FF0E0EE0FFF1FE45579
:103F2000FD4F81E090E002C0880F991F6A95E2F78B
:103F3000BC01808191816823792381E0672B09F49A
:103F400080E00895411115C0E82FF0E0EE0FFF1F4B
:103F5000E455FD4F81E090E002C0880F991F6A95FB
:103F6000E2F780959095208131818223932380838D
:103F700091830895CF93DF93EC016BD08C1B9D0B45
:103F8000DF91CF91089585B7806885BF85B7806838
:103F900085BF08951F921FB61F9211248F939F9380
:103FA000AF93BF938091B802811113C080914903F0
:103FB00090914A03A0914B03B0914C034196A11DEF
:103FC000B11D8093490390934A03A0934B03B09390
:103FD0004C03BF91AF919F918F911F901FBE1F9077
:103FE000189580915103843031F10E949003109212
:103FF000B80288E190E020E40FB6F894A895809389
:1040000060000FBE2093600083B7817F846083BF10
:1040100083B7816083BF7894889583B78E7F83BF91
:104020000FB6F894A8958091600088618093600035
:10403000109260000FBE08950E949B060C9494039A
:1040400082E084BD93E095BD9AEF97BD80936E00AA
:1040500008952FB7F8948091490390914A03A09155
:104060004B03B0914C032FBF08952FB7F894609184
:10407000490370914A0380914B0390914C032FBFE9
:10408000089578941F921FB61F9211248F939F93C7
:10409000AF93BF938091490390914A03A0914B0342
:1040A000B0914C030196A11DB11D809349039093DB
:1040B0004A03A0934B03B0934C03BF91AF919F91E0
:1040C0008F911F901FBE1F901895F89481E08093E8
:1040D000E00080E28093D800E9ECF0E010828FE10C
:1040E0009EE40197F1F700C000001DBA109268002D
:1040F0001CBC10BE1FBA10927A0010926E00109273
:104100006F0010927100109272001082ECEB10821E
:1041100014B817B81AB81DB810BA108215B818B864
:104120001BB81EB811BA0C94003F089588E19AE0BC
:104130000FB6F894A895809360000FBE909360002E
:10414000FFCF9B01BA01909151039430D9F48F7045
:104150008093E9009FEF8091E80085FD06C085ED22
:104160008A95F1F700009150B1F78091E80085FF42
:1041700009C040E050E0C901F3D18091E8008E779A
:104180008093E8000895603229F440E250E0BC01D9
:1041900082E0D7CF089543E050E0BC0184E0D1CF66
:1041A00046E050E0BC0184E0CCCF40E250E0BC01EE
:1041B00084E0C7CFCF93DF93EC0164DE48E050E0AA
:1041C000BE0181E0BEDF88E0FE01A9EBB2E0019014
:1041D0000D928A95E1F7DF91CF910895A0E2B0E0CA
:1041E000E3EFF0E2A9C6809151038430F1F483E05B
:1041F0008093E9008091E80082FF17C08091E80079
:1042000090E085FF07C040E050E0BD01CE0101967F
:10421000F4D191E08091E8008B778093E8009115CC
:1042200021F060E2CE0101962BDBA096E2E0A0C671
:1042300080915003811107C06ED3BED38091E200FC
:1042400084608093E2000895109250030895FDDD8C
:1042500081E009CE60914D0381E0611101C080E0F1
:10426000E6CD9091510381E0943009F080E06091B7
:104270004D03E9CD42E061EC81E0C9D242E261EC5C
:1042800084E0C5D242E261EC82E0C1D242E260EC5D
:1042900083E0BDD29091510381E0943009F080E039
:1042A00060914D03B8CD80915303893081F148F47A
:1042B000823009F497C0833009F458C0813041F04E
:1042C00008958A3009F481C08B3009F469C00895DB
:1042D00080915203813A09F048C08091E800877FBD
:1042E0008093E8008091560390915703892B59F0F1
:1042F00060E080E090E070E0CDD18091E8008B77C5
:104300008093E800089568E089EB92E0F4CF809113
:104310005203813251F580915603909157038D7F5E
:10432000892B19F58091E800877F8093E8008091C0
:10433000E80082FF16C02091F3008091F200922FD6
:10434000029731F48091F100813011F0863019F438
:104350008091F1009ADD8091E8008B778093E800EE
:104360008AC2809151038111E2CF08958091520356
:10437000813AD9F78091560390915703892BA9F779
:104380008091E800877F8093E8008091E80080FFBB
:10439000FCCF78DD8093F1008091E8008E77DECF4E
:1043A00080915203813209F780915603909157030F
:1043B000892BD9F68091E800877F8093E8005BD253
:1043C0008091540350DD0C949B06809152038132FE
:1043D00061F68091E800877F8093E8004CD280915D
:1043E000550361CD80915203813A09F0BECF80918F
:1043F000E800877F8093E8008091E80080FFFCCF91
:104400005DDDC8CF84B7877F84BF0FB6F894A895C9
:1044100080916000886180936000109260000FBE00
:1044200080E890E00FB6F89480936100909361006B
:104430000FBE17CD70D2C0D2E2EEF0E08081846072
:10444000808378941CC588E191E01ACB8091510358
:10445000853029F480915103853011F0EDCD089518
:10446000C0DD37DD8115B1F380914F03811591F3E4
:1044700061D00E949B06EECF08959A0140915803A7
:104480005091590300C0492F50E043305105D1F0FD
:1044900078F44130510509F448C04230510571F4B7
:1044A0008BE590E04EE453E0F90140835183089599
:1044B00041325105E9F04232510539F180E090E096
:1044C00040E0F2CF482F50E0813061F0423051059A
:1044D00061F0EAE4F3E04115510581F7849190E041
:1044E000AF01E2CFE4E3F3E0F9CFECE1F3E0F6CFA4
:1044F0006330710518F7660F771FFB01E754FE4F15
:104500004081518189E090E0CFCF63307105B0F6F2
:10451000FB01EE0FFF1FED54FE4F408151816055AE
:104520007E4FFB01808190E0BFCF82E190E049EABD
:1045300053E0BACF80E189BD82E189BD09B400FEB4
:10454000FDCF8091D8008F7D8093D8008091E000CE
:1045500082608093E0008091E00081FDFCCF0895AF
:10456000AF92BF92CF92DF92FF920F931F93CF93A0
:10457000DF936C01EB018A019DD1F82E811123C0DC
:104580000115110539F0F80180819181C81BD90B03
:10459000C80ED91EA12CB12C2097A9F08091E8005B
:1045A00085FD21C08091E8008E778093E800011599
:1045B0001105A1F0F801808191818A0D9B1D8083F6
:1045C000918385E0F82E8F2DDF91CF911F910F9170
:1045D000FF90DF90CF90BF90AF9008956BD1811581
:1045E000E9F2F82EF0CFF60181916F018093F1008E
:1045F00021978FEFA81AB80ACFCFAF92BF92CF9270
:10460000DF92FF920F931F93CF93DF936C01EB0127
:104610008A0150D1F82E811123C00115110539F0FE
:10462000F80180819181C81BD90BC80ED91EA12C1D
:10463000B12C2097A9F08091E80085FD21C08091E0
:10464000E8008B778093E80001151105A1F0F801CF
:10465000808191818A0D9B1D8083918385E0F82E56
:104660008F2DDF91CF911F910F91FF90DF90CF9011
:10467000BF90AF9008951ED18115E9F2F82EF0CFCA
:104680008091F100F60181936F0121978FEFA81AB5
:10469000B80ACFCFFC012091580330915903261757
:1046A000370720F06115710569F09B0190E0211535
:1046B000310571F491110CC08091E80082FF38C07F
:1046C00080E008959091E8009E779093E800EDCF08
:1046D000809151038115C1F18530C1F18091E800CD
:1046E00083FD30C08091E80082FDE6CF8091E80034
:1046F00080FFDDCF8091F3004091F200582F21150B
:10470000310519F04830510558F091E04830510515
:1047100009F090E04091E8004E774093E800C7CF61
:1047200081918093F100215031094F5F5F4FE7CFB6
:1047300080915103811541F0853041F08091E8006E
:1047400083FFBACF81E0089582E0089583E0089561
:10475000FC0120915803309159032617370720F0A8
:104760006115710569F09B0190E02115310571F427
:1047700091110CC08091E80082FF39C080E008955B
:104780008091E8008E778093E800EDCF809151030F
:104790008115C9F18530C9F18091E80083FD31C0F0
:1047A0008091E80082FDE6CF8091E80080FFDDCFB8
:1047B0008091F3004091F200582F2115310519F036
:1047C0004830510558F091E04830510509F090E02B
:1047D0008091E8008E778093E800C7CF8491809322
:1047E000F1003196215031094F5F5F4FE6CF809144
:1047F0005103811541F0853041F08091E80083FF3D
:10480000B9CF81E0089582E0089583E00895982F5C
:10481000973028F08F708093E90081E0089590939D
:10482000E900242F762F50E0981731F07091EC00BA
:104830002091ED005091F00021FD02C09F5FE8CF74
:104840003091EB003E7F3093EB003091ED003D7FE7
:104850003093ED003091EB0031603093EB007093BA
:10486000EC002093ED005093F0002091EE0027FD26
:10487000E5CF80E008958091520387FF13C08091B7
:10488000E80082FF06C08091E8008B778093E80003
:104890000895809151038111F2CF089580915103C1
:1048A0008115D9F38091E80080FFF8CF8091E8006E
:1048B0008E77ECCF2091E4003091E50095E6A901D8
:1048C0002091EC00822F817020FF06C08091E800CB
:1048D00080FF06C080E008952091E80022FD1AC004
:1048E00080915103811589F0853089F08091EB002A
:1048F00085FD0FC02091E4003091E5004217530779
:10490000F9F29150E1F684E0089582E0089583E0A1
:10491000089581E008955FD066D0E0EEF0E08081F8
:1049200081608083E8ED80818F77808319BCA7ED5B
:10493000B0E08C918E7F8C9380818F7E80831092EB
:1049400050030895CF93DF9346D04DD0C8EDD0E00B
:1049500088818F77888388818068888388818F7D2C
:10496000888319BC1092510310924D0310924F038B
:1049700010924E03E0EEF0E080818B7F808388818F
:104980008160888342E060E080E041DFE1EEF0E0BA
:1049900080818E7F8083E2EE808181608083808150
:1049A00088608083E0EE80818E7F80838881806153
:1049B0008883DF91CF910895E8EDF0E080818F7ECC
:1049C0008083E7ED80818160808384E082BF81E025
:1049D00080935003B7CFE8EDF0E080818E7F808335
:1049E0001092E20008951092DA001092E10008950A
:1049F0001F920F920FB60F9211242F933F934F9354
:104A00005F936F937F938F939F93AF93BF93EF9336
:104A1000FF938091E10082FF0AC08091E20082FF53
:104A200006C08091E1008B7F8093E10027D28091C6
:104A3000DA0080FF18C08091D80080FF14C08091F8
:104A4000DA008E7F8093DA008091D90080FF8FC0DA
:104A500080E189BD82E189BD09B400FEFDCF81E01E
:104A600080935103E5DB8091E10080FF18C08091C5
:104A7000E20080FF14C08091E2008E7F8093E2000C
:104A80008091E20080618093E2008091D800806292
:104A90008093D80019BC85E080935103DBDB8091C3
:104AA000E10084FF28C08091E20084FF24C080E1FF
:104AB00089BD82E189BD09B400FEFDCF8091D80097
:104AC0008F7D8093D8008091E1008F7E8093E100FC
:104AD0008091E2008F7E8093E2008091E20081600D
:104AE0008093E20080914D03811509F445C084E074
:104AF00080935103B6DB8091E10083FF27C0809152
:104B0000E20083FF23C08091E100877F8093E10072
:104B100082E08093510310924D038091E1008E7FDB
:104B20008093E1008091E2008E7F8093E20080918B
:104B3000E20080618093E20042E060E080E067DEB6
:104B40008091F00088608093F00081DBFF91EF910D
:104B5000BF91AF919F918F917F916F915F914F9195
:104B60003F912F910F900FBE0F901F90189519BC79
:104B70001092510369DB77CF8091E30087FF02C079
:104B800083E0B6CF81E0B4CF1F920F920FB60F92A1
:104B900011241F932F933F934F935F936F937F93B2
:104BA0008F939F93AF93BF93CF93DF93EF93FF9335
:104BB000E9EEF0E080811091EC008F7010FB11277E
:104BC00017F9182B1082C0EFD0E08881877F888387
:104BD00078941CD0E9EEF0E01082888188608883A8
:104BE0001F701083FF91EF91DF91CF91BF91AF9133
:104BF0009F918F917F916F915F914F913F912F91F5
:104C00001F910F900FBE0F901F901895AAE2B0E071
:104C1000EBE0F6E290C182E593E0FC010196209181
:104C2000F100208323E08A359207B9F73CDB8091BD
:104C3000E80083FF37C080915203909153039A306C
:104C400088F5E92FF0E0E957F74D59C1803889F030
:104C5000823841F5809156038F70873018F5809324
:104C6000E9008091EB0085FB882780F91092E9002C
:104C700006C080914F03880F90914E03892B90912D
:104C8000E800977F9093E8008093F1001092F10084
:104C90008091E8008E7722C0811115C08091540365
:104CA000813001F18091E80083FF0AC08091E80023
:104CB000877F8093E8008091EB0080628093EB0017
:104CC000AA96E3E054C1823069F7809154038115BC
:104CD00079F01092E9008091E800877F8093E800E6
:104CE000CADDE0CF933009F080E080934F03F1CF2D
:104CF000809156038F70282F2150263098F680938C
:104D0000E9002091EB0020FFE4CF933031F4809153
:104D1000EB0080628093EB00DCCF9091EB00906120
:104D20009093EB0021E001C0220F8A95EAF72093CF
:104D3000EA001092EA008091EB008860EBCF8111CD
:104D4000B1CF809154038F77182F8091E300807842
:104D5000812B8093E3008091E800877F8093E800B7
:104D60008ADD8091E80080FFFCCF8091E3008068BD
:104D70008093E30083E0111101C082E0809351032E
:104D800091CF8058823008F08DCF8091540390915C
:104D900055038C3D23E0920789F583E08A838AE2FC
:104DA00089834FB7F894DE01139620E03EE051E28C
:104DB000E32FF0E050935700849120FF03C08295C9
:104DC0008F703F5F8F708A30B8F0895C8D931D9231
:104DD0002F5F243169F74FBF8091E800877F809370
:104DE000E8006AE270E0CE01019654DC8091E800B0
:104DF0008B778093E80056CF805DE8CF60915603B3
:104E000070915703AE014F5F5F4F37DBBC01892BB9
:104E100009F448CF9091E800977F9093E80089814A
:104E20009A8196DCE3CF803809F03CCF8091E8008E
:104E3000877F8093E80080914D038093F10028CF15
:104E4000811130CF90915403923008F02BCF809194
:104E5000E800877F8093E80090934D030CDD8091FC
:104E60004D03811529F084E08093510303DA1ACFB2
:104E70008091E30087FDF7CF81E0F6CF0895CF93CF
:104E800080915103811591F08091E900C091EC006F
:104E90008F70C0FBCC27C7F9C82B1092E900809116
:104EA000E80083FDB3DECF70C093E900CF91089591
:104EB000AA1BBB1B51E107C0AA1FBB1FA617B70740
:104EC00010F0A61BB70B881F991F5A95A9F780955C
:104ED0009095BC01CD01089597FB072E16F4009420
:104EE00006D077FD08D0E4DF07FC05D03EF49095AE
:104EF00081959F4F0895709561957F4F0895EE0FAE
:104F0000FF1F0590F491E02D0994692796276927E2
:104F100078278727782708952F923F924F925F92A4
:104F20006F927F928F929F92AF92BF92CF92DF92B9
:104F3000EF92FF920F931F93CF93DF93CDB7DEB71E
:104F4000CA1BDB0B0FB6F894DEBF0FBECDBF0994B2
:104F50002A88398848885F846E847D848C849B8409
:104F6000AA84B984C884DF80EE80FD800C811B8117
:104F7000AA81B981CE0FD11D0FB6F894DEBF0FBE46
:104F8000CDBFED010895FB01DC0104C08D910190BE
:104F9000801921F441505040C8F7881B990B08959F
:104FA000F999FECF92BD81BDF89A992780B50895F1
:104FB000A6E1B0E044E050E034C0A8E1B0E042E057
:104FC00050E02FC0DC01A40FB51F4150504040F00D
:104FD000CB01840F951F2E9105D041505040D8F73A
:104FE0000895262FF999FECF92BD81BDF89A0197B9
:104FF00000B4021639F01FBA20BD0FB6F894FA9A21
:10500000F99A0FBE08950396272FECDFEADF252FCC
:10501000E9DF242FE7CF0196272FE4DFE2CFDC0181
:10502000CB01FC01F999FECF06C0F2BDE1BDF89AB3
:10503000319600B40D9241505040B8F70895F8945D
:10504000FFCFDB04DB0412051205690585050305A6
:1050500003058905F005FD05FD0527112A112E110F
:10506000321136113A113E11421146114A114E11B8
:10507000C3163217CB1695169916CF169D16D31652
:10508000DF16A9162B17AD16E316B116E7160C1787
:10509000B516EB161317BB16F116F916A116D7168F
:1050A000A516DB16BF16F51603171C1729178F1642
:1050B000C7163917D217D717D917DE17EE17EE17FD
:1050C000EE17EE17EE17EE17EE17EE17E017E417D0
:1050D000E717EC17FB1701180518131B191B041B06
:1050E0000D1B1F1B251B2B1B511C5C1C831C931CA5
:1050F0009E1CA91CAC1CAC1CAC1C641C641CB01C0D
:10510000B41CBC1CC91CD61CD91CDC1CE91C2626E2
:105110004C2652264C2652269F26C126522613275D
:02512000202746
:105122005A027A02001E001E1E280850011E0A148E
:105132000103020100000100501FDA20D520D02017
:10514200CB20C320E200E900EA00B500B600B700B8
:10515200CD008301CC008A01920194012102230235
:1051620024022502260227022A02B300B4006F009D
:1051720070009F01CB019F02A002E200E900EA0059
:10518200B500B600B700CD008301CC008A019201C0
:1051920094012102230224022502260227022A0266
:1051A200B300B4006F0070009F01CB019F02A00208
:1051B20037666790919293949597C6F0F1F4F5F65D
:1051C20030323334353600017E1380138B13A31330
:1051D2004422B69304BB03DD036003790399030001
:00000001FF
